{
  "contractName": "CertificateRegistry",
  "abi": [
    {
      "inputs": [],
      "stateMutability": "nonpayable",
      "type": "constructor"
    },
    {
      "anonymous": false,
      "inputs": [
        {
          "indexed": true,
          "internalType": "bytes32",
          "name": "certificateId",
          "type": "bytes32"
        },
        {
          "indexed": false,
          "internalType": "string",
          "name": "recipientName",
          "type": "string"
        },
        {
          "indexed": false,
          "internalType": "string",
          "name": "courseName",
          "type": "string"
        }
      ],
      "name": "CertificateIssued",
      "type": "event"
    },
    {
      "anonymous": false,
      "inputs": [
        {
          "indexed": true,
          "internalType": "bytes32",
          "name": "certificateId",
          "type": "bytes32"
        }
      ],
      "name": "CertificateRevoked",
      "type": "event"
    },
    {
      "anonymous": false,
      "inputs": [
        {
          "indexed": true,
          "internalType": "address",
          "name": "issuer",
          "type": "address"
        }
      ],
      "name": "IssuerAuthorized",
      "type": "event"
    },
    {
      "anonymous": false,
      "inputs": [
        {
          "indexed": true,
          "internalType": "address",
          "name": "issuer",
          "type": "address"
        }
      ],
      "name": "IssuerDeauthorized",
      "type": "event"
    },
    {
      "anonymous": false,
      "inputs": [
        {
          "indexed": true,
          "internalType": "address",
          "name": "previousOwner",
          "type": "address"
        },
        {
          "indexed": true,
          "internalType": "address",
          "name": "newOwner",
          "type": "address"
        }
      ],
      "name": "OwnershipTransferred",
      "type": "event"
    },
    {
      "inputs": [
        {
          "internalType": "address",
          "name": "",
          "type": "address"
        }
      ],
      "name": "authorizedIssuers",
      "outputs": [
        {
          "internalType": "bool",
          "name": "",
          "type": "bool"
        }
      ],
      "stateMutability": "view",
      "type": "function",
      "constant": true
    },
    {
      "inputs": [
        {
          "internalType": "bytes32",
          "name": "",
          "type": "bytes32"
        }
      ],
      "name": "certificates",
      "outputs": [
        {
          "internalType": "string",
          "name": "recipientName",
          "type": "string"
        },
        {
          "internalType": "string",
          "name": "courseName",
          "type": "string"
        },
        {
          "internalType": "uint256",
          "name": "completionDate",
          "type": "uint256"
        },
        {
          "internalType": "address",
          "name": "issuerAddress",
          "type": "address"
        },
        {
          "internalType": "uint256",
          "name": "issueDate",
          "type": "uint256"
        },
        {
          "internalType": "bool",
          "name": "isValid",
          "type": "bool"
        },
        {
          "internalType": "bool",
          "name": "isRevoked",
          "type": "bool"
        },
        {
          "internalType": "uint256",
          "name": "revocationDate",
          "type": "uint256"
        },
        {
          "internalType": "bytes",
          "name": "signature",
          "type": "bytes"
        }
      ],
      "stateMutability": "view",
      "type": "function",
      "constant": true
    },
    {
      "inputs": [],
      "name": "owner",
      "outputs": [
        {
          "internalType": "address",
          "name": "",
          "type": "address"
        }
      ],
      "stateMutability": "view",
      "type": "function",
      "constant": true
    },
    {
      "inputs": [],
      "name": "renounceOwnership",
      "outputs": [],
      "stateMutability": "nonpayable",
      "type": "function"
    },
    {
      "inputs": [
        {
          "internalType": "address",
          "name": "newOwner",
          "type": "address"
        }
      ],
      "name": "transferOwnership",
      "outputs": [],
      "stateMutability": "nonpayable",
      "type": "function"
    },
    {
      "inputs": [
        {
          "internalType": "address",
          "name": "issuer",
          "type": "address"
        }
      ],
      "name": "authorizeIssuer",
      "outputs": [],
      "stateMutability": "nonpayable",
      "type": "function"
    },
    {
      "inputs": [
        {
          "internalType": "address",
          "name": "issuer",
          "type": "address"
        }
      ],
      "name": "deauthorizeIssuer",
      "outputs": [],
      "stateMutability": "nonpayable",
      "type": "function"
    },
    {
      "inputs": [
        {
          "internalType": "string",
          "name": "recipientName",
          "type": "string"
        },
        {
          "internalType": "string",
          "name": "courseName",
          "type": "string"
        },
        {
          "internalType": "uint256",
          "name": "completionDate",
          "type": "uint256"
        },
        {
          "internalType": "bytes",
          "name": "signature",
          "type": "bytes"
        }
      ],
      "name": "issueCertificate",
      "outputs": [],
      "stateMutability": "nonpayable",
      "type": "function"
    },
    {
      "inputs": [
        {
          "internalType": "bytes32",
          "name": "certificateId",
          "type": "bytes32"
        }
      ],
      "name": "revokeCertificate",
      "outputs": [],
      "stateMutability": "nonpayable",
      "type": "function"
    },
    {
      "inputs": [
        {
          "internalType": "bytes32",
          "name": "certificateId",
          "type": "bytes32"
        }
      ],
      "name": "verifyCertificate",
      "outputs": [
        {
          "internalType": "bool",
          "name": "",
          "type": "bool"
        }
      ],
      "stateMutability": "view",
      "type": "function",
      "constant": true
    },
    {
      "inputs": [
        {
          "internalType": "bytes32",
          "name": "certificateId",
          "type": "bytes32"
        }
      ],
      "name": "getCertificate",
      "outputs": [
        {
          "internalType": "string",
          "name": "recipientName",
          "type": "string"
        },
        {
          "internalType": "string",
          "name": "courseName",
          "type": "string"
        },
        {
          "internalType": "uint256",
          "name": "completionDate",
          "type": "uint256"
        },
        {
          "internalType": "address",
          "name": "issuerAddress",
          "type": "address"
        },
        {
          "internalType": "uint256",
          "name": "issueDate",
          "type": "uint256"
        },
        {
          "internalType": "bool",
          "name": "isValid",
          "type": "bool"
        },
        {
          "internalType": "bool",
          "name": "isRevoked",
          "type": "bool"
        },
        {
          "internalType": "uint256",
          "name": "revocationDate",
          "type": "uint256"
        }
      ],
      "stateMutability": "view",
      "type": "function",
      "constant": true
    },
    {
      "inputs": [
        {
          "internalType": "bytes32",
          "name": "certificateId",
          "type": "bytes32"
        },
        {
          "internalType": "bytes",
          "name": "signature",
          "type": "bytes"
        }
      ],
      "name": "verifySignature",
      "outputs": [
        {
          "internalType": "bool",
          "name": "",
          "type": "bool"
        }
      ],
      "stateMutability": "view",
      "type": "function",
      "constant": true
    }
  ],
  "bytecode": "0x608060405234801561001057600080fd5b5061001a3361003e565b6001808055336000908152600360205260409020805460ff1916909117905561008e565b600080546001600160a01b038381166001600160a01b0319831681178455604051919092169283917f8be0079c531659141344cd1fd0a4f28419497f9722a3daafe3b4186f6b6457e09190a35050565b6118ef8061009d6000396000f3fe608060405234801561001057600080fd5b50600436106100b45760003560e01c80638da5cb5b116100715780638da5cb5b14610150578063c6cbc52a1461016b578063daca6f781461017e578063f2fde38b14610191578063f333fe08146101a4578063f731fa0f146101cb57600080fd5b80633a71daf4146100b9578063436693d5146100ce578063699baf40146100e1578063715018a6146100f4578063742f0688146100fc578063850c17681461012d575b600080fd5b6100cc6100c73660046113e3565b6101ee565b005b6100cc6100dc3660046113e3565b61023f565b6100cc6100ef3660046114af565b610293565b6100cc6104d9565b61010f61010a366004611541565b6104ed565b604051610124999897969594939291906115aa565b60405180910390f35b61014061013b366004611541565b6106e2565b6040519015158152602001610124565b6000546040516001600160a01b039091168152602001610124565b6100cc610179366004611541565b610924565b61014061018c36600461162b565b610a96565b6100cc61019f3660046113e3565b610d73565b6101b76101b2366004611541565b610dec565b604051610124989796959493929190611672565b6101406101d93660046113e3565b60036020526000908152604090205460ff1681565b6101f6611069565b6001600160a01b038116600081815260036020526040808220805460ff19169055517f8f3e6dced744d75443e2f2eb94962b368491dc80ec07cd3a3f7896069b6c452c9190a250565b610247611069565b6001600160a01b038116600081815260036020526040808220805460ff19166001179055517f8b4006ca14f23d4e7aa8d120d1ab7c3761d650eefac1a5d6732dbea94b54ea249190a250565b3360009081526003602052604090205460ff166102f25760405162461bcd60e51b81526020600482015260186024820152772737ba1030b71030baba3437b934bd32b21034b9b9bab2b960411b60448201526064015b60405180910390fd5b6102fa6110c3565b600084848433426040516020016103159594939291906116d8565b60408051601f1981840301815291815281516020928301206000818152600290935291206005015490915060ff16156103905760405162461bcd60e51b815260206004820152601a60248201527f436572746966696361746520616c72656164792065786973747300000000000060448201526064016102e9565b60408051610120810182528681526020808201879052818301869052336060830152426080830152600160a0830152600060c0830181905260e083018190526101008301869052848152600290915291909120815181906103f190826117b5565b506020820151600182019061040690826117b5565b506040820151600282015560608201516003820180546001600160a01b0319166001600160a01b039092169190911790556080820151600482015560a082015160058201805460c085015161ffff1990911692151561ff00191692909217610100921515830217905560e08301516006830155820151600782019061048b90826117b5565b50905050807f23cb08027d6cf3f884123dc2fcb28589d27c93a6efdd5273282b92e1bab9767186866040516104c1929190611875565b60405180910390a2506104d360018055565b50505050565b6104e1611069565b6104eb600061111c565b565b6002602052600090815260409020805481906105089061172c565b80601f01602080910402602001604051908101604052809291908181526020018280546105349061172c565b80156105815780601f1061055657610100808354040283529160200191610581565b820191906000526020600020905b81548152906001019060200180831161056457829003601f168201915b5050505050908060010180546105969061172c565b80601f01602080910402602001604051908101604052809291908181526020018280546105c29061172c565b801561060f5780601f106105e45761010080835404028352916020019161060f565b820191906000526020600020905b8154815290600101906020018083116105f257829003601f168201915b50505060028401546003850154600486015460058701546006880154600789018054989995986001600160a01b03909516975092955060ff80831695610100909304169390929061065f9061172c565b80601f016020809104026020016040519081016040528092919081815260200182805461068b9061172c565b80156106d85780601f106106ad576101008083540402835291602001916106d8565b820191906000526020600020905b8154815290600101906020018083116106bb57829003601f168201915b5050505050905089565b600081815260026020526040808220815161012081019092528054839291908290829061070e9061172c565b80601f016020809104026020016040519081016040528092919081815260200182805461073a9061172c565b80156107875780601f1061075c57610100808354040283529160200191610787565b820191906000526020600020905b81548152906001019060200180831161076a57829003601f168201915b505050505081526020016001820180546107a09061172c565b80601f01602080910402602001604051908101604052809291908181526020018280546107cc9061172c565b80156108195780601f106107ee57610100808354040283529160200191610819565b820191906000526020600020905b8154815290600101906020018083116107fc57829003601f168201915b50505091835250506002820154602082015260038201546001600160a01b0316604082015260048201546060820152600582015460ff8082161515608084015261010090910416151560a0820152600682015460c082015260078201805460e0909201916108869061172c565b80601f01602080910402602001604051908101604052809291908181526020018280546108b29061172c565b80156108ff5780601f106108d4576101008083540402835291602001916108ff565b820191906000526020600020905b8154815290600101906020018083116108e257829003601f168201915b50505050508152505090508060a00151801561091d57508060c00151155b9392505050565b3360009081526003602052604090205460ff1661097e5760405162461bcd60e51b81526020600482015260186024820152772737ba1030b71030baba3437b934bd32b21034b9b9bab2b960411b60448201526064016102e9565b60008181526002602052604090206005015460ff166109df5760405162461bcd60e51b815260206004820152601a60248201527f436572746966696361746520646f6573206e6f7420657869737400000000000060448201526064016102e9565b600081815260026020526040902060050154610100900460ff1615610a465760405162461bcd60e51b815260206004820152601b60248201527f436572746966696361746520616c7265616479207265766f6b6564000000000060448201526064016102e9565b60008181526002602052604080822060058101805461ffff1916610100179055426006909101555182917f44d80a438cb4fa3b5aedbe551ce3d9382e37f446917b783e1dee70a03b4180e391a250565b6000828152600260205260408082208151610120810190925280548392919082908290610ac29061172c565b80601f0160208091040260200160405190810160405280929190818152602001828054610aee9061172c565b8015610b3b5780601f10610b1057610100808354040283529160200191610b3b565b820191906000526020600020905b815481529060010190602001808311610b1e57829003601f168201915b50505050508152602001600182018054610b549061172c565b80601f0160208091040260200160405190810160405280929190818152602001828054610b809061172c565b8015610bcd5780601f10610ba257610100808354040283529160200191610bcd565b820191906000526020600020905b815481529060010190602001808311610bb057829003601f168201915b50505091835250506002820154602082015260038201546001600160a01b0316604082015260048201546060820152600582015460ff8082161515608084015261010090910416151560a0820152600682015460c082015260078201805460e090920191610c3a9061172c565b80601f0160208091040260200160405190810160405280929190818152602001828054610c669061172c565b8015610cb35780601f10610c8857610100808354040283529160200191610cb3565b820191906000526020600020905b815481529060010190602001808311610c9657829003601f168201915b5050505050815250509050600081600001518260200151836040015184606001518560800151604051602001610ced9594939291906116d8565b6040516020818303038152906040528051906020012090506000610d3e827f19457468657265756d205369676e6564204d6573736167653a0a3332000000006000908152601c91909152603c902090565b90506000610d4c828761116c565b905083606001516001600160a01b0316816001600160a01b03161494505050505092915050565b610d7b611069565b6001600160a01b038116610de05760405162461bcd60e51b815260206004820152602660248201527f4f776e61626c653a206e6577206f776e657220697320746865207a65726f206160448201526564647265737360d01b60648201526084016102e9565b610de98161111c565b50565b6060806000806000806000806000600260008b815260200190815260200160002060405180610120016040529081600082018054610e299061172c565b80601f0160208091040260200160405190810160405280929190818152602001828054610e559061172c565b8015610ea25780601f10610e7757610100808354040283529160200191610ea2565b820191906000526020600020905b815481529060010190602001808311610e8557829003601f168201915b50505050508152602001600182018054610ebb9061172c565b80601f0160208091040260200160405190810160405280929190818152602001828054610ee79061172c565b8015610f345780601f10610f0957610100808354040283529160200191610f34565b820191906000526020600020905b815481529060010190602001808311610f1757829003601f168201915b50505091835250506002820154602082015260038201546001600160a01b0316604082015260048201546060820152600582015460ff8082161515608084015261010090910416151560a0820152600682015460c082015260078201805460e090920191610fa19061172c565b80601f0160208091040260200160405190810160405280929190818152602001828054610fcd9061172c565b801561101a5780601f10610fef5761010080835404028352916020019161101a565b820191906000526020600020905b815481529060010190602001808311610ffd57829003601f168201915b5050505050815250509050806000015181602001518260400151836060015184608001518560a001518660c001518760e001519850985098509850985098509850985050919395975091939597565b6000546001600160a01b031633146104eb5760405162461bcd60e51b815260206004820181905260248201527f4f776e61626c653a2063616c6c6572206973206e6f7420746865206f776e657260448201526064016102e9565b6002600154036111155760405162461bcd60e51b815260206004820152601f60248201527f5265656e7472616e637947756172643a207265656e7472616e742063616c6c0060448201526064016102e9565b6002600155565b600080546001600160a01b038381166001600160a01b0319831681178455604051919092169283917f8be0079c531659141344cd1fd0a4f28419497f9722a3daafe3b4186f6b6457e09190a35050565b600080600061117b8585611190565b91509150611188816111d5565b509392505050565b60008082516041036111c65760208301516040840151606085015160001a6111ba8782858561131f565b945094505050506111ce565b506000905060025b9250929050565b60008160048111156111e9576111e96118a3565b036111f15750565b6001816004811115611205576112056118a3565b036112525760405162461bcd60e51b815260206004820152601860248201527f45434453413a20696e76616c6964207369676e6174757265000000000000000060448201526064016102e9565b6002816004811115611266576112666118a3565b036112b35760405162461bcd60e51b815260206004820152601f60248201527f45434453413a20696e76616c6964207369676e6174757265206c656e6774680060448201526064016102e9565b60038160048111156112c7576112c76118a3565b03610de95760405162461bcd60e51b815260206004820152602260248201527f45434453413a20696e76616c6964207369676e6174757265202773272076616c604482015261756560f01b60648201526084016102e9565b6000807f7fffffffffffffffffffffffffffffff5d576e7357a4501ddfe92f46681b20a083111561135657506000905060036113da565b6040805160008082526020820180845289905260ff881692820192909252606081018690526080810185905260019060a0016020604051602081039080840390855afa1580156113aa573d6000803e3d6000fd5b5050604051601f1901519150506001600160a01b0381166113d3576000600192509250506113da565b9150600090505b94509492505050565b6000602082840312156113f557600080fd5b81356001600160a01b038116811461091d57600080fd5b634e487b7160e01b600052604160045260246000fd5b600082601f83011261143357600080fd5b813567ffffffffffffffff8082111561144e5761144e61140c565b604051601f8301601f19908116603f011681019082821181831017156114765761147661140c565b8160405283815286602085880101111561148f57600080fd5b836020870160208301376000602085830101528094505050505092915050565b600080600080608085870312156114c557600080fd5b843567ffffffffffffffff808211156114dd57600080fd5b6114e988838901611422565b955060208701359150808211156114ff57600080fd5b61150b88838901611422565b945060408701359350606087013591508082111561152857600080fd5b5061153587828801611422565b91505092959194509250565b60006020828403121561155357600080fd5b5035919050565b60005b8381101561157557818101518382015260200161155d565b50506000910152565b6000815180845261159681602086016020860161155a565b601f01601f19169290920160200192915050565b60006101208083526115be8184018d61157e565b905082810360208401526115d2818c61157e565b604084018b90526001600160a01b038a1660608501526080840189905287151560a085015286151560c085015260e08401869052838103610100850152905061161b818561157e565b9c9b505050505050505050505050565b6000806040838503121561163e57600080fd5b82359150602083013567ffffffffffffffff81111561165c57600080fd5b61166885828601611422565b9150509250929050565b60006101008083526116868184018c61157e565b9050828103602084015261169a818b61157e565b604084019990995250506001600160a01b03959095166060860152608085019390935290151560a0840152151560c083015260e09091015292915050565b600086516116ea818460208b0161155a565b8651908301906116fe818360208b0161155a565b01948552505060609190911b6bffffffffffffffffffffffff19166020830152603482015260540192915050565b600181811c9082168061174057607f821691505b60208210810361176057634e487b7160e01b600052602260045260246000fd5b50919050565b601f8211156117b057600081815260208120601f850160051c8101602086101561178d5750805b601f850160051c820191505b818110156117ac57828155600101611799565b5050505b505050565b815167ffffffffffffffff8111156117cf576117cf61140c565b6117e3816117dd845461172c565b84611766565b602080601f83116001811461181857600084156118005750858301515b600019600386901b1c1916600185901b1785556117ac565b600085815260208120601f198616915b8281101561184757888601518255948401946001909101908401611828565b50858210156118655787850151600019600388901b60f8161c191681555b5050505050600190811b01905550565b604081526000611888604083018561157e565b828103602084015261189a818561157e565b95945050505050565b634e487b7160e01b600052602160045260246000fdfea26469706673582212207675f7ad7c550097a961758b94bfa0d11db560d743c9cb30326d1bb6b1a87efa64736f6c63430008130033",
  "immutableReferences": {},
  "source": "// SPDX-License-Identifier: MIT\r\npragma solidity ^0.8.0;\r\n\r\nimport \"@openzeppelin/contracts/access/Ownable.sol\";\r\nimport \"@openzeppelin/contracts/security/ReentrancyGuard.sol\";\r\nimport \"@openzeppelin/contracts/utils/cryptography/ECDSA.sol\";\r\n\r\ncontract CertificateRegistry is Ownable, ReentrancyGuard {\r\n    using ECDSA for bytes32;\r\n\r\n    struct Certificate {\r\n        string recipientName;\r\n        string courseName;\r\n        uint256 completionDate;\r\n        address issuerAddress;\r\n        uint256 issueDate;\r\n        bool isValid;\r\n        bool isRevoked;\r\n        uint256 revocationDate;\r\n        bytes signature;\r\n    }\r\n\r\n    mapping(bytes32 => Certificate) public certificates;\r\n    mapping(address => bool) public authorizedIssuers;\r\n    event CertificateIssued(bytes32 indexed certificateId, string recipientName, string courseName);\r\n    event CertificateRevoked(bytes32 indexed certificateId);\r\n    event IssuerAuthorized(address indexed issuer);\r\n    event IssuerDeauthorized(address indexed issuer);\r\n\r\n    constructor() {\r\n        authorizedIssuers[msg.sender] = true;\r\n    }\r\n\r\n    modifier onlyAuthorizedIssuer() {\r\n        require(authorizedIssuers[msg.sender], \"Not an authorized issuer\");\r\n        _;\r\n    }\r\n\r\n    function authorizeIssuer(address issuer) external onlyOwner {\r\n        authorizedIssuers[issuer] = true;\r\n        emit IssuerAuthorized(issuer);\r\n    }\r\n\r\n    function deauthorizeIssuer(address issuer) external onlyOwner {\r\n        authorizedIssuers[issuer] = false;\r\n        emit IssuerDeauthorized(issuer);\r\n    }\r\n\r\n    function issueCertificate(\r\n        string memory recipientName,\r\n        string memory courseName,\r\n        uint256 completionDate,\r\n        bytes memory signature\r\n    ) external onlyAuthorizedIssuer nonReentrant {\r\n        bytes32 certificateId = keccak256(\r\n            abi.encodePacked(\r\n                recipientName,\r\n                courseName,\r\n                completionDate,\r\n                msg.sender,\r\n                block.timestamp\r\n            )\r\n        );\r\n\r\n        require(!certificates[certificateId].isValid, \"Certificate already exists\");\r\n\r\n        certificates[certificateId] = Certificate({\r\n            recipientName: recipientName,\r\n            courseName: courseName,\r\n            completionDate: completionDate,\r\n            issuerAddress: msg.sender,\r\n            issueDate: block.timestamp,\r\n            isValid: true,\r\n            isRevoked: false,\r\n            revocationDate: 0,\r\n            signature: signature\r\n        });\r\n\r\n        emit CertificateIssued(certificateId, recipientName, courseName);\r\n    }\r\n\r\n    function revokeCertificate(bytes32 certificateId) external onlyAuthorizedIssuer {\r\n        require(certificates[certificateId].isValid, \"Certificate does not exist\");\r\n        require(!certificates[certificateId].isRevoked, \"Certificate already revoked\");\r\n\r\n        certificates[certificateId].isRevoked = true;\r\n        certificates[certificateId].isValid = false;\r\n        certificates[certificateId].revocationDate = block.timestamp;\r\n\r\n        emit CertificateRevoked(certificateId);\r\n    }\r\n\r\n    function verifyCertificate(bytes32 certificateId) external view returns (bool) {\r\n        Certificate memory cert = certificates[certificateId];\r\n        return cert.isValid && !cert.isRevoked;\r\n    }\r\n\r\n    function getCertificate(bytes32 certificateId) external view returns (\r\n        string memory recipientName,\r\n        string memory courseName,\r\n        uint256 completionDate,\r\n        address issuerAddress,\r\n        uint256 issueDate,\r\n        bool isValid,\r\n        bool isRevoked,\r\n        uint256 revocationDate\r\n    ) {\r\n        Certificate memory cert = certificates[certificateId];\r\n        return (\r\n            cert.recipientName,\r\n            cert.courseName,\r\n            cert.completionDate,\r\n            cert.issuerAddress,\r\n            cert.issueDate,\r\n            cert.isValid,\r\n            cert.isRevoked,\r\n            cert.revocationDate\r\n        );\r\n    }\r\n\r\n    function verifySignature(\r\n        bytes32 certificateId,\r\n        bytes memory signature\r\n    ) external view returns (bool) {\r\n        Certificate memory cert = certificates[certificateId];\r\n        bytes32 messageHash = keccak256(\r\n            abi.encodePacked(\r\n                cert.recipientName,\r\n                cert.courseName,\r\n                cert.completionDate,\r\n                cert.issuerAddress,\r\n                cert.issueDate\r\n            )\r\n        );\r\n        bytes32 ethSignedMessageHash = messageHash.toEthSignedMessageHash();\r\n        address signer = ethSignedMessageHash.recover(signature);\r\n        return signer == cert.issuerAddress;\r\n    }\r\n} ",
  "sourcePath": "C:\\Users\\Admin\\OneDrive\\Desktop\\CODE\\C-G-V\\contracts\\CertificateRegistry.sol",
  "compiler": {
    "name": "solc",
    "version": "0.8.19+commit.7dd6d404.Emscripten.clang"
  },
  "schemaVersion": "3.4.16",
  "updatedAt": "2025-03-21T09:38:29.728Z",
  "networkType": "ethereum",
  "devdoc": {
    "kind": "dev",
    "methods": {
      "owner()": {
        "details": "Returns the address of the current owner."
      },
      "renounceOwnership()": {
        "details": "Leaves the contract without owner. It will not be possible to call `onlyOwner` functions. Can only be called by the current owner. NOTE: Renouncing ownership will leave the contract without an owner, thereby disabling any functionality that is only available to the owner."
      },
      "transferOwnership(address)": {
        "details": "Transfers ownership of the contract to a new account (`newOwner`). Can only be called by the current owner."
      }
    },
    "version": 1
  },
  "userdoc": {
    "kind": "user",
    "methods": {},
    "version": 1
  }
}